{
  "abi": [
    {
      "type": "constructor",
      "inputs": [
        {
          "name": "_mailbox",
          "type": "address",
          "internalType": "address"
        }
      ],
      "stateMutability": "nonpayable"
    },
    {
      "type": "function",
      "name": "canvas",
      "inputs": [
        {
          "name": "",
          "type": "uint256",
          "internalType": "uint256"
        },
        {
          "name": "",
          "type": "uint256",
          "internalType": "uint256"
        }
      ],
      "outputs": [
        {
          "name": "",
          "type": "string",
          "internalType": "string"
        }
      ],
      "stateMutability": "view"
    },
    {
      "type": "function",
      "name": "getCanvas",
      "inputs": [
        {
          "name": "x",
          "type": "uint8",
          "internalType": "uint8"
        }
      ],
      "outputs": [
        {
          "name": "",
          "type": "string[200]",
          "internalType": "string[200]"
        }
      ],
      "stateMutability": "view"
    },
    {
      "type": "function",
      "name": "handleMessage",
      "inputs": [
        {
          "name": "recipient",
          "type": "address",
          "internalType": "address"
        },
        {
          "name": "origin",
          "type": "uint32",
          "internalType": "uint32"
        },
        {
          "name": "sender",
          "type": "bytes32",
          "internalType": "bytes32"
        },
        {
          "name": "body",
          "type": "bytes",
          "internalType": "bytes"
        }
      ],
      "outputs": [],
      "stateMutability": "nonpayable"
    },
    {
      "type": "function",
      "name": "mailbox",
      "inputs": [],
      "outputs": [
        {
          "name": "",
          "type": "address",
          "internalType": "address"
        }
      ],
      "stateMutability": "view"
    },
    {
      "type": "function",
      "name": "place",
      "inputs": [
        {
          "name": "_place",
          "type": "tuple",
          "internalType": "struct PlaceStruct",
          "components": [
            {
              "name": "placer",
              "type": "address",
              "internalType": "address"
            },
            {
              "name": "x",
              "type": "uint8",
              "internalType": "uint8"
            },
            {
              "name": "y",
              "type": "uint8",
              "internalType": "uint8"
            },
            {
              "name": "color",
              "type": "string",
              "internalType": "string"
            }
          ]
        }
      ],
      "outputs": [],
      "stateMutability": "nonpayable"
    },
    {
      "type": "event",
      "name": "Placed",
      "inputs": [
        {
          "name": "user",
          "type": "address",
          "indexed": false,
          "internalType": "address"
        },
        {
          "name": "x",
          "type": "uint256",
          "indexed": false,
          "internalType": "uint256"
        },
        {
          "name": "y",
          "type": "uint256",
          "indexed": false,
          "internalType": "uint256"
        },
        {
          "name": "color",
          "type": "string",
          "indexed": false,
          "internalType": "string"
        }
      ],
      "anonymous": false
    },
    {
      "type": "event",
      "name": "Received",
      "inputs": [
        {
          "name": "origin",
          "type": "uint32",
          "indexed": false,
          "internalType": "uint32"
        },
        {
          "name": "sender",
          "type": "address",
          "indexed": false,
          "internalType": "address"
        },
        {
          "name": "body",
          "type": "bytes",
          "indexed": false,
          "internalType": "bytes"
        }
      ],
      "anonymous": false
    }
  ],
  "bytecode": {
    "object": "0x608060405234801561000f575f80fd5b50604051611115380380611115833981810160405281019061003191906100d6565b80614e205f6101000a81548173ffffffffffffffffffffffffffffffffffffffff021916908373ffffffffffffffffffffffffffffffffffffffff16021790555050610101565b5f80fd5b5f73ffffffffffffffffffffffffffffffffffffffff82169050919050565b5f6100a58261007c565b9050919050565b6100b58161009b565b81146100bf575f80fd5b50565b5f815190506100d0816100ac565b92915050565b5f602082840312156100eb576100ea610078565b5b5f6100f8848285016100c2565b91505092915050565b6110078061010e5f395ff3fe608060405234801561000f575f80fd5b5060043610610055575f3560e01c806339b7f1aa14610059578063627cff8314610075578063a65dd6b9146100a5578063ae081787146100c1578063d5438eae146100f1575b5f80fd5b610073600480360381019061006e91906104d5565b61010f565b005b61008f600480360381019061008a9190610552565b610124565b60405161009c919061069c565b60405180910390f35b6100bf60048036038101906100ba91906107e3565b610208565b005b6100db60048036038101906100d6919061089a565b61030b565b6040516100e89190610920565b60405180910390f35b6100f96103bb565b604051610106919061094f565b60405180910390f35b6101218161011c90610b29565b6103e1565b50565b61012c61047a565b5f8260ff166064811061014257610141610b3b565b5b60c8020160c880602002604051908101604052809291905f905b828210156101fd57838201805461017290610b95565b80601f016020809104026020016040519081016040528092919081815260200182805461019e90610b95565b80156101e95780601f106101c0576101008083540402835291602001916101e9565b820191905f5260205f20905b8154815290600101906020018083116101cc57829003601f168201915b50505050508152602001906001019061015c565b505050509050919050565b614e205f9054906101000a900473ffffffffffffffffffffffffffffffffffffffff1673ffffffffffffffffffffffffffffffffffffffff163373ffffffffffffffffffffffffffffffffffffffff1614610298576040517f08c379a000000000000000000000000000000000000000000000000000000000815260040161028f90610c35565b60405180910390fd5b8473ffffffffffffffffffffffffffffffffffffffff166356d5d475858585856040518563ffffffff1660e01b81526004016102d79493929190610cad565b5f604051808303815f87803b1580156102ee575f80fd5b505af1158015610300573d5f803e3d5ffd5b505050505050505050565b5f8260648110610319575f80fd5b60c802018160c8811061032a575f80fd5b015f9150915050805461033c90610b95565b80601f016020809104026020016040519081016040528092919081815260200182805461036890610b95565b80156103b35780601f1061038a576101008083540402835291602001916103b3565b820191905f5260205f20905b81548152906001019060200180831161039657829003601f168201915b505050505081565b614e205f9054906101000a900473ffffffffffffffffffffffffffffffffffffffff1681565b80606001515f826020015160ff1660648110610400576103ff610b3b565b5b60c80201826040015160ff1660c8811061041d5761041c610b3b565b5b01908161042a9190610e88565b507f5a36643dd1c4d386649993a1f3dc54d93c52df759b783c7056d447bae7c88ea0815f015182602001518360400151846060015160405161046f9493929190610f87565b60405180910390a150565b60405180611900016040528060c8905b606081526020019060019003908161048a5790505090565b5f604051905090565b5f80fd5b5f80fd5b5f80fd5b5f608082840312156104cc576104cb6104b3565b5b81905092915050565b5f602082840312156104ea576104e96104ab565b5b5f82013567ffffffffffffffff811115610507576105066104af565b5b610513848285016104b7565b91505092915050565b5f60ff82169050919050565b6105318161051c565b811461053b575f80fd5b50565b5f8135905061054c81610528565b92915050565b5f60208284031215610567576105666104ab565b5b5f6105748482850161053e565b91505092915050565b5f60c89050919050565b5f81905092915050565b5f819050919050565b5f81519050919050565b5f82825260208201905092915050565b8281835e5f83830152505050565b5f601f19601f8301169050919050565b5f6105dc8261059a565b6105e681856105a4565b93506105f68185602086016105b4565b6105ff816105c2565b840191505092915050565b5f61061583836105d2565b905092915050565b5f602082019050919050565b5f6106338261057d565b61063d8185610587565b93508360208202850161064f85610591565b805f5b8581101561068a578484038952815161066b858261060a565b94506106768361061d565b925060208a01995050600181019050610652565b50829750879550505050505092915050565b5f6020820190508181035f8301526106b48184610629565b905092915050565b5f73ffffffffffffffffffffffffffffffffffffffff82169050919050565b5f6106e5826106bc565b9050919050565b6106f5816106db565b81146106ff575f80fd5b50565b5f81359050610710816106ec565b92915050565b5f63ffffffff82169050919050565b61072e81610716565b8114610738575f80fd5b50565b5f8135905061074981610725565b92915050565b5f819050919050565b6107618161074f565b811461076b575f80fd5b50565b5f8135905061077c81610758565b92915050565b5f80fd5b5f80fd5b5f80fd5b5f8083601f8401126107a3576107a2610782565b5b8235905067ffffffffffffffff8111156107c0576107bf610786565b5b6020830191508360018202830111156107dc576107db61078a565b5b9250929050565b5f805f805f608086880312156107fc576107fb6104ab565b5b5f61080988828901610702565b955050602061081a8882890161073b565b945050604061082b8882890161076e565b935050606086013567ffffffffffffffff81111561084c5761084b6104af565b5b6108588882890161078e565b92509250509295509295909350565b5f819050919050565b61087981610867565b8114610883575f80fd5b50565b5f8135905061089481610870565b92915050565b5f80604083850312156108b0576108af6104ab565b5b5f6108bd85828601610886565b92505060206108ce85828601610886565b9150509250929050565b5f82825260208201905092915050565b5f6108f28261059a565b6108fc81856108d8565b935061090c8185602086016105b4565b610915816105c2565b840191505092915050565b5f6020820190508181035f83015261093881846108e8565b905092915050565b610949816106db565b82525050565b5f6020820190506109625f830184610940565b92915050565b5f80fd5b7f4e487b71000000000000000000000000000000000000000000000000000000005f52604160045260245ffd5b6109a2826105c2565b810181811067ffffffffffffffff821117156109c1576109c061096c565b5b80604052505050565b5f6109d36104a2565b90506109df8282610999565b919050565b5f80fd5b5f80fd5b5f67ffffffffffffffff821115610a0657610a0561096c565b5b610a0f826105c2565b9050602081019050919050565b828183375f83830152505050565b5f610a3c610a37846109ec565b6109ca565b905082815260208101848484011115610a5857610a576109e8565b5b610a63848285610a1c565b509392505050565b5f82601f830112610a7f57610a7e610782565b5b8135610a8f848260208601610a2a565b91505092915050565b5f60808284031215610aad57610aac610968565b5b610ab760806109ca565b90505f610ac684828501610702565b5f830152506020610ad98482850161053e565b6020830152506040610aed8482850161053e565b604083015250606082013567ffffffffffffffff811115610b1157610b106109e4565b5b610b1d84828501610a6b565b60608301525092915050565b5f610b343683610a98565b9050919050565b7f4e487b71000000000000000000000000000000000000000000000000000000005f52603260045260245ffd5b7f4e487b71000000000000000000000000000000000000000000000000000000005f52602260045260245ffd5b5f6002820490506001821680610bac57607f821691505b602082108103610bbf57610bbe610b68565b5b50919050565b7f4f6e6c79206d61696c626f782063616e2063616c6c20746869732066756e63745f8201527f696f6e0000000000000000000000000000000000000000000000000000000000602082015250565b5f610c1f6023836108d8565b9150610c2a82610bc5565b604082019050919050565b5f6020820190508181035f830152610c4c81610c13565b9050919050565b610c5c81610716565b82525050565b610c6b8161074f565b82525050565b5f82825260208201905092915050565b5f610c8c8385610c71565b9350610c99838584610a1c565b610ca2836105c2565b840190509392505050565b5f606082019050610cc05f830187610c53565b610ccd6020830186610c62565b8181036040830152610ce0818486610c81565b905095945050505050565b5f819050815f5260205f209050919050565b5f6020601f8301049050919050565b5f82821b905092915050565b5f60088302610d477fffffffffffffffffffffffffffffffffffffffffffffffffffffffffffffffff82610d0c565b610d518683610d0c565b95508019841693508086168417925050509392505050565b5f819050919050565b5f610d8c610d87610d8284610867565b610d69565b610867565b9050919050565b5f819050919050565b610da583610d72565b610db9610db182610d93565b848454610d18565b825550505050565b5f90565b610dcd610dc1565b610dd8818484610d9c565b505050565b5b81811015610dfb57610df05f82610dc5565b600181019050610dde565b5050565b601f821115610e4057610e1181610ceb565b610e1a84610cfd565b81016020851015610e29578190505b610e3d610e3585610cfd565b830182610ddd565b50505b505050565b5f82821c905092915050565b5f610e605f1984600802610e45565b1980831691505092915050565b5f610e788383610e51565b9150826002028217905092915050565b610e918261059a565b67ffffffffffffffff811115610eaa57610ea961096c565b5b610eb48254610b95565b610ebf828285610dff565b5f60209050601f831160018114610ef0575f8415610ede578287015190505b610ee88582610e6d565b865550610f4f565b601f198416610efe86610ceb565b5f5b82811015610f2557848901518255600182019150602085019450602081019050610f00565b86831015610f425784890151610f3e601f891682610e51565b8355505b6001600288020188555050505b505050505050565b5f610f71610f6c610f678461051c565b610d69565b610867565b9050919050565b610f8181610f57565b82525050565b5f608082019050610f9a5f830187610940565b610fa76020830186610f78565b610fb46040830185610f78565b8181036060830152610fc681846108e8565b90509594505050505056fea264697066735822122091e1afe7b2c1d5026697c711ec43ff788b2b6d00e649fe9f8aeeebff57cbb63664736f6c63430008190033",
    "linkReferences": {}
  },
  "methodIdentifiers": {
    "canvas(uint256,uint256)": "ae081787",
    "getCanvas(uint8)": "627cff83",
    "handleMessage(address,uint32,bytes32,bytes)": "a65dd6b9",
    "mailbox()": "d5438eae",
    "place((address,uint8,uint8,string))": "39b7f1aa"
  },
  "id": 15
}